{
  "contractName": "DEX",
  "abi": [
    {
      "inputs": [],
      "stateMutability": "nonpayable",
      "type": "constructor"
    },
    {
      "anonymous": false,
      "inputs": [
        {
          "indexed": false,
          "internalType": "uint256",
          "name": "amount",
          "type": "uint256"
        }
      ],
      "name": "Bought",
      "type": "event"
    },
    {
      "anonymous": false,
      "inputs": [
        {
          "indexed": false,
          "internalType": "uint256",
          "name": "amount",
          "type": "uint256"
        }
      ],
      "name": "Sold",
      "type": "event"
    },
    {
      "inputs": [],
      "name": "token",
      "outputs": [
        {
          "internalType": "contract IERC20",
          "name": "",
          "type": "address"
        }
      ],
      "stateMutability": "view",
      "type": "function"
    },
    {
      "inputs": [],
      "name": "buy",
      "outputs": [],
      "stateMutability": "payable",
      "type": "function"
    },
    {
      "inputs": [
        {
          "internalType": "uint256",
          "name": "amount",
          "type": "uint256"
        }
      ],
      "name": "sell",
      "outputs": [],
      "stateMutability": "nonpayable",
      "type": "function"
    }
  ],
  "bytecode": "0x608060405234801561001057600080fd5b5060405161001d9061007e565b604051809103906000f080158015610039573d6000803e3d6000fd5b506000806101000a81548173ffffffffffffffffffffffffffffffffffffffff021916908373ffffffffffffffffffffffffffffffffffffffff16021790555061008b565b610e7480610a2783390190565b61098d8061009a6000396000f3fe6080604052600436106100345760003560e01c8063a6f2ae3a14610039578063e4849b3214610043578063fc0c546a1461006c575b600080fd5b610041610097565b005b34801561004f57600080fd5b5061006a600480360381019061006591906105ad565b6102b9565b005b34801561007857600080fd5b50610081610521565b60405161008e91906107f6565b60405180910390f35b600034905060008060009054906101000a900473ffffffffffffffffffffffffffffffffffffffff1673ffffffffffffffffffffffffffffffffffffffff166370a08231306040518263ffffffff1660e01b81526004016100f89190610752565b60206040518083038186803b15801561011057600080fd5b505afa158015610124573d6000803e3d6000fd5b505050506040513d601f19601f8201168201806040525081019061014891906105d6565b90506000821161018d576040517f08c379a000000000000000000000000000000000000000000000000000000000815260040161018490610871565b60405180910390fd5b808211156101d0576040517f08c379a00000000000000000000000000000000000000000000000000000000081526004016101c790610851565b60405180910390fd5b60008054906101000a900473ffffffffffffffffffffffffffffffffffffffff1673ffffffffffffffffffffffffffffffffffffffff1663a9059cbb33846040518363ffffffff1660e01b815260040161022b9291906107cd565b602060405180830381600087803b15801561024557600080fd5b505af1158015610259573d6000803e3d6000fd5b505050506040513d601f19601f8201168201806040525081019061027d9190610584565b507f4e08ba899977cf7d4c2964bce71c6b9a7ef76ee5166a4c1249a1e08016e33ef1826040516102ad9190610891565b60405180910390a15050565b600081116102fc576040517f08c379a00000000000000000000000000000000000000000000000000000000081526004016102f390610811565b60405180910390fd5b60008060009054906101000a900473ffffffffffffffffffffffffffffffffffffffff1673ffffffffffffffffffffffffffffffffffffffff1663dd62ed3e33306040518363ffffffff1660e01b815260040161035a92919061076d565b60206040518083038186803b15801561037257600080fd5b505afa158015610386573d6000803e3d6000fd5b505050506040513d601f19601f820116820180604052508101906103aa91906105d6565b9050818110156103ef576040517f08c379a00000000000000000000000000000000000000000000000000000000081526004016103e690610831565b60405180910390fd5b60008054906101000a900473ffffffffffffffffffffffffffffffffffffffff1673ffffffffffffffffffffffffffffffffffffffff166323b872dd3330856040518463ffffffff1660e01b815260040161044c93929190610796565b602060405180830381600087803b15801561046657600080fd5b505af115801561047a573d6000803e3d6000fd5b505050506040513d601f19601f8201168201806040525081019061049e9190610584565b503373ffffffffffffffffffffffffffffffffffffffff166108fc839081150290604051600060405180830381858888f193505050501580156104e5573d6000803e3d6000fd5b507f92f64ca637d023f354075a4be751b169c1a8a9ccb6d33cdd0cb3520543995727826040516105159190610891565b60405180910390a15050565b60008054906101000a900473ffffffffffffffffffffffffffffffffffffffff1681565b60008151905061055481610929565b92915050565b60008135905061056981610940565b92915050565b60008151905061057e81610940565b92915050565b60006020828403121561059657600080fd5b60006105a484828501610545565b91505092915050565b6000602082840312156105bf57600080fd5b60006105cd8482850161055a565b91505092915050565b6000602082840312156105e857600080fd5b60006105f68482850161056f565b91505092915050565b610608816108bd565b82525050565b61061781610905565b82525050565b600061062a6025836108ac565b91507f596f75206e65656420746f2073656c6c206174206c6561737420736f6d65207460008301527f6f6b656e730000000000000000000000000000000000000000000000000000006020830152604082019050919050565b60006106906019836108ac565b91507f436865636b2074686520746f6b656e20616c6c6f77616e6365000000000000006000830152602082019050919050565b60006106d06020836108ac565b91507f4e6f7420656e6f75676820746f6b656e7320696e2074686520726573657276656000830152602082019050919050565b6000610710601b836108ac565b91507f596f75206e65656420746f2073656e6420736f6d6520657468657200000000006000830152602082019050919050565b61074c816108fb565b82525050565b600060208201905061076760008301846105ff565b92915050565b600060408201905061078260008301856105ff565b61078f60208301846105ff565b9392505050565b60006060820190506107ab60008301866105ff565b6107b860208301856105ff565b6107c56040830184610743565b949350505050565b60006040820190506107e260008301856105ff565b6107ef6020830184610743565b9392505050565b600060208201905061080b600083018461060e565b92915050565b6000602082019050818103600083015261082a8161061d565b9050919050565b6000602082019050818103600083015261084a81610683565b9050919050565b6000602082019050818103600083015261086a816106c3565b9050919050565b6000602082019050818103600083015261088a81610703565b9050919050565b60006020820190506108a66000830184610743565b92915050565b600082825260208201905092915050565b60006108c8826108db565b9050919050565b60008115159050919050565b600073ffffffffffffffffffffffffffffffffffffffff82169050919050565b6000819050919050565b600061091082610917565b9050919050565b6000610922826108db565b9050919050565b610932816108cf565b811461093d57600080fd5b50565b610949816108fb565b811461095457600080fd5b5056fea2646970667358221220c4f647acb96758957f2e4c4c999bd08d8f79985ac019549f795303b7e711bda164736f6c634300080000336080604052678ac7230489e8000060025534801561001c57600080fd5b506002546000803373ffffffffffffffffffffffffffffffffffffffff1673ffffffffffffffffffffffffffffffffffffffff16815260200190815260200160002081905550610e03806100716000396000f3fe608060405234801561001057600080fd5b50600436106100935760003560e01c8063313ce56711610066578063313ce5671461013457806370a082311461015257806395d89b4114610182578063a9059cbb146101a0578063dd62ed3e146101d057610093565b806306fdde0314610098578063095ea7b3146100b657806318160ddd146100e657806323b872dd14610104575b600080fd5b6100a0610200565b6040516100ad9190610bd9565b60405180910390f35b6100d060048036038101906100cb9190610b1c565b610239565b6040516100dd9190610bbe565b60405180910390f35b6100ee61032b565b6040516100fb9190610bfb565b60405180910390f35b61011e60048036038101906101199190610acd565b610335565b60405161012b9190610bbe565b60405180910390f35b61013c6106b0565b6040516101499190610c16565b60405180910390f35b61016c60048036038101906101679190610a68565b6106b5565b6040516101799190610bfb565b60405180910390f35b61018a6106fd565b6040516101979190610bd9565b60405180910390f35b6101ba60048036038101906101b59190610b1c565b610736565b6040516101c79190610bbe565b60405180910390f35b6101ea60048036038101906101e59190610a91565b610918565b6040516101f79190610bfb565b60405180910390f35b6040518060400160405280600a81526020017f455243323042617369630000000000000000000000000000000000000000000081525081565b600081600160003373ffffffffffffffffffffffffffffffffffffffff1673ffffffffffffffffffffffffffffffffffffffff16815260200190815260200160002060008573ffffffffffffffffffffffffffffffffffffffff1673ffffffffffffffffffffffffffffffffffffffff168152602001908152602001600020819055508273ffffffffffffffffffffffffffffffffffffffff163373ffffffffffffffffffffffffffffffffffffffff167f8c5be1e5ebec7d5bd14f71427d1e84f3dd0314c0f7b2291e5b200ac8c7c3b925846040516103199190610bfb565b60405180910390a36001905092915050565b6000600254905090565b60008060008573ffffffffffffffffffffffffffffffffffffffff1673ffffffffffffffffffffffffffffffffffffffff1681526020019081526020016000205482111561038257600080fd5b600160008573ffffffffffffffffffffffffffffffffffffffff1673ffffffffffffffffffffffffffffffffffffffff16815260200190815260200160002060003373ffffffffffffffffffffffffffffffffffffffff1673ffffffffffffffffffffffffffffffffffffffff1681526020019081526020016000205482111561040b57600080fd5b61045c826000808773ffffffffffffffffffffffffffffffffffffffff1673ffffffffffffffffffffffffffffffffffffffff1681526020019081526020016000205461099f90919063ffffffff16565b6000808673ffffffffffffffffffffffffffffffffffffffff1673ffffffffffffffffffffffffffffffffffffffff1681526020019081526020016000208190555061052d82600160008773ffffffffffffffffffffffffffffffffffffffff1673ffffffffffffffffffffffffffffffffffffffff16815260200190815260200160002060003373ffffffffffffffffffffffffffffffffffffffff1673ffffffffffffffffffffffffffffffffffffffff1681526020019081526020016000205461099f90919063ffffffff16565b600160008673ffffffffffffffffffffffffffffffffffffffff1673ffffffffffffffffffffffffffffffffffffffff16815260200190815260200160002060003373ffffffffffffffffffffffffffffffffffffffff1673ffffffffffffffffffffffffffffffffffffffff168152602001908152602001600020819055506105fe826000808673ffffffffffffffffffffffffffffffffffffffff1673ffffffffffffffffffffffffffffffffffffffff168152602001908152602001600020546109ec90919063ffffffff16565b6000808573ffffffffffffffffffffffffffffffffffffffff1673ffffffffffffffffffffffffffffffffffffffff168152602001908152602001600020819055508273ffffffffffffffffffffffffffffffffffffffff168473ffffffffffffffffffffffffffffffffffffffff167fddf252ad1be2c89b69c2b068fc378daa952ba7f163c4a11628f55a4df523b3ef8460405161069d9190610bfb565b60405180910390a3600190509392505050565b601281565b60008060008373ffffffffffffffffffffffffffffffffffffffff1673ffffffffffffffffffffffffffffffffffffffff168152602001908152602001600020549050919050565b6040518060400160405280600381526020017f455243000000000000000000000000000000000000000000000000000000000081525081565b60008060003373ffffffffffffffffffffffffffffffffffffffff1673ffffffffffffffffffffffffffffffffffffffff1681526020019081526020016000205482111561078357600080fd5b6107d4826000803373ffffffffffffffffffffffffffffffffffffffff1673ffffffffffffffffffffffffffffffffffffffff1681526020019081526020016000205461099f90919063ffffffff16565b6000803373ffffffffffffffffffffffffffffffffffffffff1673ffffffffffffffffffffffffffffffffffffffff16815260200190815260200160002081905550610867826000808673ffffffffffffffffffffffffffffffffffffffff1673ffffffffffffffffffffffffffffffffffffffff168152602001908152602001600020546109ec90919063ffffffff16565b6000808573ffffffffffffffffffffffffffffffffffffffff1673ffffffffffffffffffffffffffffffffffffffff168152602001908152602001600020819055508273ffffffffffffffffffffffffffffffffffffffff163373ffffffffffffffffffffffffffffffffffffffff167fddf252ad1be2c89b69c2b068fc378daa952ba7f163c4a11628f55a4df523b3ef846040516109069190610bfb565b60405180910390a36001905092915050565b6000600160008473ffffffffffffffffffffffffffffffffffffffff1673ffffffffffffffffffffffffffffffffffffffff16815260200190815260200160002060008373ffffffffffffffffffffffffffffffffffffffff1673ffffffffffffffffffffffffffffffffffffffff16815260200190815260200160002054905092915050565b6000828211156109d8577f4e487b7100000000000000000000000000000000000000000000000000000000600052600160045260246000fd5b81836109e49190610ca3565b905092915050565b60008082846109fb9190610c4d565b905083811015610a34577f4e487b7100000000000000000000000000000000000000000000000000000000600052600160045260246000fd5b8091505092915050565b600081359050610a4d81610d9f565b92915050565b600081359050610a6281610db6565b92915050565b600060208284031215610a7a57600080fd5b6000610a8884828501610a3e565b91505092915050565b60008060408385031215610aa457600080fd5b6000610ab285828601610a3e565b9250506020610ac385828601610a3e565b9150509250929050565b600080600060608486031215610ae257600080fd5b6000610af086828701610a3e565b9350506020610b0186828701610a3e565b9250506040610b1286828701610a53565b9150509250925092565b60008060408385031215610b2f57600080fd5b6000610b3d85828601610a3e565b9250506020610b4e85828601610a53565b9150509250929050565b610b6181610ce9565b82525050565b6000610b7282610c31565b610b7c8185610c3c565b9350610b8c818560208601610d2c565b610b9581610d8e565b840191505092915050565b610ba981610d15565b82525050565b610bb881610d1f565b82525050565b6000602082019050610bd36000830184610b58565b92915050565b60006020820190508181036000830152610bf38184610b67565b905092915050565b6000602082019050610c106000830184610ba0565b92915050565b6000602082019050610c2b6000830184610baf565b92915050565b600081519050919050565b600082825260208201905092915050565b6000610c5882610d15565b9150610c6383610d15565b9250827fffffffffffffffffffffffffffffffffffffffffffffffffffffffffffffffff03821115610c9857610c97610d5f565b5b828201905092915050565b6000610cae82610d15565b9150610cb983610d15565b925082821015610ccc57610ccb610d5f565b5b828203905092915050565b6000610ce282610cf5565b9050919050565b60008115159050919050565b600073ffffffffffffffffffffffffffffffffffffffff82169050919050565b6000819050919050565b600060ff82169050919050565b60005b83811015610d4a578082015181840152602081019050610d2f565b83811115610d59576000848401525b50505050565b7f4e487b7100000000000000000000000000000000000000000000000000000000600052601160045260246000fd5b6000601f19601f8301169050919050565b610da881610cd7565b8114610db357600080fd5b50565b610dbf81610d15565b8114610dca57600080fd5b5056fea26469706673582212209de09a763d730d75e6d8acd66e94223df33d7ed7ff3d06055f45e4a5005caee464736f6c63430008000033",
  "immutableReferences": {},
  "source": "// SPDX-License-Identifier: MIT\r\npragma solidity ^0.8.0;\r\n\r\nimport './ERC20Basic.sol';\r\n\r\n\r\ncontract DEX {\r\n\r\n    event Bought(uint256 amount);\r\n    event Sold(uint256 amount);\r\n\r\n\r\n    IERC20 public token;\r\n\r\n    constructor() {\r\n        token = new ERC20Basic();\r\n    }\r\n\r\n    function buy() payable public {\r\n        uint256 amountTobuy = msg.value;\r\n        uint256 dexBalance = token.balanceOf(address(this));\r\n        require(amountTobuy > 0, \"You need to send some ether\");\r\n        require(amountTobuy <= dexBalance, \"Not enough tokens in the reserve\");\r\n        token.transfer(msg.sender, amountTobuy);\r\n        emit Bought(amountTobuy);\r\n    }\r\n\r\n    function sell(uint256 amount) public {\r\n        require(amount > 0, \"You need to sell at least some tokens\");\r\n        uint256 allowance = token.allowance(msg.sender, address(this));\r\n        require(allowance >= amount, \"Check the token allowance\");\r\n        token.transferFrom(msg.sender, address(this), amount);\r\n        payable(msg.sender).transfer(amount);\r\n        emit Sold(amount);\r\n    }\r\n\r\n}\r\n",
  "sourcePath": "G:\\PIAIC\\Bootcamp2021\\DEX-Project4\\backend\\contracts\\DEX.sol",
  "compiler": {
    "name": "solc",
    "version": "0.8.0+commit.c7dfd78e.Emscripten.clang"
  },
  "schemaVersion": "3.4.3",
  "updatedAt": "2021-09-08T13:46:48.507Z",
  "devdoc": {
    "kind": "dev",
    "methods": {},
    "version": 1
  },
  "userdoc": {
    "kind": "user",
    "methods": {},
    "version": 1
  }
}